{
  "contractName": "AnbeShivamMain",
  "abi": [
    {
      "anonymous": false,
      "inputs": [
        {
          "indexed": true,
          "internalType": "address",
          "name": "previousOwner",
          "type": "address"
        },
        {
          "indexed": true,
          "internalType": "address",
          "name": "newOwner",
          "type": "address"
        }
      ],
      "name": "OwnershipTransferred",
      "type": "event"
    },
    {
      "anonymous": false,
      "inputs": [
        {
          "indexed": false,
          "internalType": "uint256",
          "name": "",
          "type": "uint256"
        },
        {
          "indexed": false,
          "internalType": "string",
          "name": "",
          "type": "string"
        },
        {
          "indexed": false,
          "internalType": "string",
          "name": "",
          "type": "string"
        }
      ],
      "name": "newContentAdded",
      "type": "event"
    },
    {
      "anonymous": false,
      "inputs": [
        {
          "indexed": false,
          "internalType": "uint256",
          "name": "",
          "type": "uint256"
        },
        {
          "indexed": false,
          "internalType": "uint256",
          "name": "",
          "type": "uint256"
        },
        {
          "indexed": false,
          "internalType": "address",
          "name": "",
          "type": "address"
        }
      ],
      "name": "projectFunded",
      "type": "event"
    },
    {
      "anonymous": false,
      "inputs": [
        {
          "indexed": false,
          "internalType": "uint256",
          "name": "",
          "type": "uint256"
        }
      ],
      "name": "setMatchingPool",
      "type": "event"
    },
    {
      "inputs": [
        {
          "internalType": "uint256",
          "name": "",
          "type": "uint256"
        }
      ],
      "name": "contents",
      "outputs": [
        {
          "internalType": "uint256",
          "name": "id",
          "type": "uint256"
        },
        {
          "internalType": "uint256",
          "name": "receivedFunds",
          "type": "uint256"
        },
        {
          "internalType": "uint256",
          "name": "matchedFunds",
          "type": "uint256"
        },
        {
          "internalType": "uint256",
          "name": "weight",
          "type": "uint256"
        },
        {
          "internalType": "uint256",
          "name": "votes",
          "type": "uint256"
        },
        {
          "internalType": "bool",
          "name": "isListed",
          "type": "bool"
        },
        {
          "internalType": "string",
          "name": "name",
          "type": "string"
        },
        {
          "internalType": "string",
          "name": "fileURL",
          "type": "string"
        },
        {
          "internalType": "address payable",
          "name": "creator",
          "type": "address"
        }
      ],
      "stateMutability": "view",
      "type": "function"
    },
    {
      "inputs": [],
      "name": "fundingPool",
      "outputs": [
        {
          "internalType": "uint256",
          "name": "",
          "type": "uint256"
        }
      ],
      "stateMutability": "view",
      "type": "function"
    },
    {
      "inputs": [],
      "name": "matchingPool",
      "outputs": [
        {
          "internalType": "uint256",
          "name": "",
          "type": "uint256"
        }
      ],
      "stateMutability": "view",
      "type": "function"
    },
    {
      "inputs": [],
      "name": "owner",
      "outputs": [
        {
          "internalType": "address",
          "name": "",
          "type": "address"
        }
      ],
      "stateMutability": "view",
      "type": "function"
    },
    {
      "inputs": [],
      "name": "renounceOwnership",
      "outputs": [],
      "stateMutability": "nonpayable",
      "type": "function"
    },
    {
      "inputs": [
        {
          "internalType": "address",
          "name": "newOwner",
          "type": "address"
        }
      ],
      "name": "transferOwnership",
      "outputs": [],
      "stateMutability": "nonpayable",
      "type": "function"
    },
    {
      "inputs": [],
      "name": "returnContentCount",
      "outputs": [
        {
          "internalType": "uint256",
          "name": "",
          "type": "uint256"
        }
      ],
      "stateMutability": "view",
      "type": "function"
    },
    {
      "inputs": [
        {
          "internalType": "address",
          "name": "_GODSContract",
          "type": "address"
        },
        {
          "internalType": "address",
          "name": "_NFTContract",
          "type": "address"
        }
      ],
      "name": "setContractAddresses",
      "outputs": [],
      "stateMutability": "nonpayable",
      "type": "function"
    },
    {
      "inputs": [],
      "name": "increaseMatchingPool",
      "outputs": [],
      "stateMutability": "payable",
      "type": "function"
    },
    {
      "inputs": [
        {
          "internalType": "string",
          "name": "_name",
          "type": "string"
        },
        {
          "internalType": "string",
          "name": "_fileURL",
          "type": "string"
        }
      ],
      "name": "addContent",
      "outputs": [],
      "stateMutability": "payable",
      "type": "function"
    },
    {
      "inputs": [
        {
          "internalType": "uint256",
          "name": "_contentID",
          "type": "uint256"
        },
        {
          "internalType": "string",
          "name": "_metadata",
          "type": "string"
        }
      ],
      "name": "investFunds",
      "outputs": [],
      "stateMutability": "payable",
      "type": "function"
    },
    {
      "inputs": [
        {
          "internalType": "uint256",
          "name": "_contentID",
          "type": "uint256"
        }
      ],
      "name": "withdrawFunds",
      "outputs": [],
      "stateMutability": "nonpayable",
      "type": "function"
    }
  ],
  "bytecode": "0x608060405234801561001057600080fd5b5061002d61002261003260201b60201c565b61003a60201b60201c565b6100fe565b600033905090565b60008060009054906101000a900473ffffffffffffffffffffffffffffffffffffffff169050816000806101000a81548173ffffffffffffffffffffffffffffffffffffffff021916908373ffffffffffffffffffffffffffffffffffffffff1602179055508173ffffffffffffffffffffffffffffffffffffffff168173ffffffffffffffffffffffffffffffffffffffff167f8be0079c531659141344cd1fd0a4f28419497f9722a3daafe3b4186f6b6457e060405160405180910390a35050565b611fe68061010d6000396000f3fe6080604052600436106100a75760003560e01c8063b5ecf91211610064578063b5ecf91214610177578063cd931e40146101bc578063e6a122af146101e5578063f2fde38b14610201578063f6a1fe941461022a578063f761d00814610255576100a7565b8063155dd5ee146100ac57806344af6a89146100d5578063715018a6146100df57806380230f60146100f65780638da5cb5b14610121578063aacef18b1461014c575b600080fd5b3480156100b857600080fd5b506100d360048036038101906100ce919061141b565b610271565b005b6100dd610527565b005b3480156100eb57600080fd5b506100f461060a565b005b34801561010257600080fd5b5061010b610692565b6040516101189190611457565b60405180910390f35b34801561012d57600080fd5b5061013661069f565b60405161014391906114b3565b60405180910390f35b34801561015857600080fd5b506101616106c8565b60405161016e9190611457565b60405180910390f35b34801561018357600080fd5b5061019e6004803603810190610199919061141b565b6106ce565b6040516101b3999897969594939291906115a3565b60405180910390f35b3480156101c857600080fd5b506101e360048036038101906101de919061166a565b610869565b005b6101ff60048036038101906101fa91906117df565b61096b565b005b34801561020d57600080fd5b506102286004803603810190610223919061183b565b610ca5565b005b34801561023657600080fd5b5061023f610d9d565b60405161024c9190611457565b60405180910390f35b61026f600480360381019061026a9190611868565b610da3565b005b60058181548110610285576102846118e0565b5b906000526020600020906009020160050160009054906101000a900460ff166102e3576040517f08c379a00000000000000000000000000000000000000000000000000000000081526004016102da9061195b565b60405180910390fd5b600581815481106102f7576102f66118e0565b5b906000526020600020906009020160080160009054906101000a900473ffffffffffffffffffffffffffffffffffffffff1673ffffffffffffffffffffffffffffffffffffffff163373ffffffffffffffffffffffffffffffffffffffff1614610396576040517f08c379a000000000000000000000000000000000000000000000000000000000815260040161038d906119c7565b60405180910390fd5b6000671bc16d674ec80000600583815481106103b5576103b46118e0565b5b906000526020600020906009020160020154600584815481106103db576103da6118e0565b5b9060005260206000209060090201600101546103f79190611a16565b6104019190611a16565b9050600060058381548110610419576104186118e0565b5b906000526020600020906009020160010181905550600060058381548110610444576104436118e0565b5b90600052602060002090600902016002018190555060006005838154811061046f5761046e6118e0565b5b906000526020600020906009020160050160006101000a81548160ff021916908315150217905550600582815481106104ab576104aa6118e0565b5b906000526020600020906009020160080160009054906101000a900473ffffffffffffffffffffffffffffffffffffffff1673ffffffffffffffffffffffffffffffffffffffff166108fc829081150290604051600060405180830381858888f19350505050158015610522573d6000803e3d6000fd5b505050565b61052f61100b565b73ffffffffffffffffffffffffffffffffffffffff1661054d61069f565b73ffffffffffffffffffffffffffffffffffffffff16146105a3576040517f08c379a000000000000000000000000000000000000000000000000000000000815260040161059a90611ab8565b60405180910390fd5b600034116105b057600080fd5b34600460008282546105c29190611a16565b925050819055507fd3c8f29288a6d7db6f728ee4af1aef615d3caaef2bd55332d7a3860b27f4e2e1346040516105f89190611457565b60405180910390a1610608611013565b565b61061261100b565b73ffffffffffffffffffffffffffffffffffffffff1661063061069f565b73ffffffffffffffffffffffffffffffffffffffff1614610686576040517f08c379a000000000000000000000000000000000000000000000000000000000815260040161067d90611ab8565b60405180910390fd5b61069060006111db565b565b6000600580549050905090565b60008060009054906101000a900473ffffffffffffffffffffffffffffffffffffffff16905090565b60045481565b600581815481106106de57600080fd5b90600052602060002090600902016000915090508060000154908060010154908060020154908060030154908060040154908060050160009054906101000a900460ff169080600601805461073290611b07565b80601f016020809104026020016040519081016040528092919081815260200182805461075e90611b07565b80156107ab5780601f10610780576101008083540402835291602001916107ab565b820191906000526020600020905b81548152906001019060200180831161078e57829003601f168201915b5050505050908060070180546107c090611b07565b80601f01602080910402602001604051908101604052809291908181526020018280546107ec90611b07565b80156108395780601f1061080e57610100808354040283529160200191610839565b820191906000526020600020905b81548152906001019060200180831161081c57829003601f168201915b5050505050908060080160009054906101000a900473ffffffffffffffffffffffffffffffffffffffff16905089565b61087161100b565b73ffffffffffffffffffffffffffffffffffffffff1661088f61069f565b73ffffffffffffffffffffffffffffffffffffffff16146108e5576040517f08c379a00000000000000000000000000000000000000000000000000000000081526004016108dc90611ab8565b60405180910390fd5b81600160006101000a81548173ffffffffffffffffffffffffffffffffffffffff021916908373ffffffffffffffffffffffffffffffffffffffff16021790555080600260006101000a81548173ffffffffffffffffffffffffffffffffffffffff021916908373ffffffffffffffffffffffffffffffffffffffff1602179055505050565b670de0b6b3a76400003410156109b6576040517f08c379a00000000000000000000000000000000000000000000000000000000081526004016109ad90611b85565b60405180910390fd5b600582815481106109ca576109c96118e0565b5b906000526020600020906009020160080160009054906101000a900473ffffffffffffffffffffffffffffffffffffffff1673ffffffffffffffffffffffffffffffffffffffff163373ffffffffffffffffffffffffffffffffffffffff161415610a6a576040517f08c379a0000000000000000000000000000000000000000000000000000000008152600401610a6190611bf1565b60405180910390fd5b3460058381548110610a7f57610a7e6118e0565b5b90600052602060002090600902016001016000828254610a9f9190611a16565b92505081905550600160058381548110610abc57610abb6118e0565b5b90600052602060002090600902016004016000828254610adc9190611a16565b92505081905550610aec3461129f565b60058381548110610b0057610aff6118e0565b5b90600052602060002090600902016003016000828254610b209190611a16565b925050819055503460036000828254610b399190611a16565b92505081905550600160009054906101000a900473ffffffffffffffffffffffffffffffffffffffff1673ffffffffffffffffffffffffffffffffffffffff166340c10f1933346040518363ffffffff1660e01b8152600401610b9d929190611c11565b600060405180830381600087803b158015610bb757600080fd5b505af1158015610bcb573d6000803e3d6000fd5b50505050600260009054906101000a900473ffffffffffffffffffffffffffffffffffffffff1673ffffffffffffffffffffffffffffffffffffffff1663d204c45e33836040518363ffffffff1660e01b8152600401610c2c929190611c3a565b600060405180830381600087803b158015610c4657600080fd5b505af1158015610c5a573d6000803e3d6000fd5b505050507f31f78011fdaa6f4db6e053d1e5b5340b2d48b1c14cedc616a5bde37c16415cf2823433604051610c9193929190611c6a565b60405180910390a1610ca1611013565b5050565b610cad61100b565b73ffffffffffffffffffffffffffffffffffffffff16610ccb61069f565b73ffffffffffffffffffffffffffffffffffffffff1614610d21576040517f08c379a0000000000000000000000000000000000000000000000000000000008152600401610d1890611ab8565b60405180910390fd5b600073ffffffffffffffffffffffffffffffffffffffff168173ffffffffffffffffffffffffffffffffffffffff161415610d91576040517f08c379a0000000000000000000000000000000000000000000000000000000008152600401610d8890611d13565b60405180910390fd5b610d9a816111db565b50565b60035481565b671bc16d674ec80000341015610dee576040517f08c379a0000000000000000000000000000000000000000000000000000000008152600401610de590611d7f565b60405180910390fd5b60056040518061012001604052806005805490508152602001600081526020016000815260200160008152602001600081526020016001151581526020018481526020018381526020013373ffffffffffffffffffffffffffffffffffffffff168152509080600181540180825580915050600190039060005260206000209060090201600090919091909150600082015181600001556020820151816001015560408201518160020155606082015181600301556080820151816004015560a08201518160050160006101000a81548160ff02191690831515021790555060c0820151816006019080519060200190610ee992919061132e565b5060e0820151816007019080519060200190610f0692919061132e565b506101008201518160080160006101000a81548173ffffffffffffffffffffffffffffffffffffffff021916908373ffffffffffffffffffffffffffffffffffffffff16021790555050507f9d052371d5508337cb778bebe3c70018c8e5eeb5c8c0899f00cffbda54f743e06001600580549050610f849190611d9f565b60056001600580549050610f989190611d9f565b81548110610fa957610fa86118e0565b5b906000526020600020906009020160060160056001600580549050610fce9190611d9f565b81548110610fdf57610fde6118e0565b5b9060005260206000209060090201600701604051610fff93929190611e68565b60405180910390a15050565b600033905090565b600080600090505b6005805490508110156110dd576005818154811061103c5761103b6118e0565b5b906000526020600020906009020160050160009054906101000a900460ff16156110cc5760058181548110611074576110736118e0565b5b9060005260206000209060090201600101546110b46005838154811061109d5761109c6118e0565b5b906000526020600020906009020160030154611319565b6110be9190611d9f565b826110c99190611a16565b91505b806110d690611ead565b905061101b565b5060005b6005805490508110156111d75760058181548110611102576111016118e0565b5b906000526020600020906009020160050160009054906101000a900460ff16156111c657816004546005838154811061113e5761113d6118e0565b5b90600052602060002090600902016001015461117e60058581548110611167576111666118e0565b5b906000526020600020906009020160030154611319565b6111889190611d9f565b6111929190611ef6565b61119c9190611f7f565b600582815481106111b0576111af6118e0565b5b9060005260206000209060090201600201819055505b806111d090611ead565b90506110e1565b5050565b60008060009054906101000a900473ffffffffffffffffffffffffffffffffffffffff169050816000806101000a81548173ffffffffffffffffffffffffffffffffffffffff021916908373ffffffffffffffffffffffffffffffffffffffff1602179055508173ffffffffffffffffffffffffffffffffffffffff168173ffffffffffffffffffffffffffffffffffffffff167f8be0079c531659141344cd1fd0a4f28419497f9722a3daafe3b4186f6b6457e060405160405180910390a35050565b6000600382111561130657819050600060016002846112be9190611f7f565b6112c89190611a16565b90505b818110156113005780915060028182856112e59190611f7f565b6112ef9190611a16565b6112f99190611f7f565b90506112cb565b50611314565b6000821461131357600190505b5b919050565b600081826113279190611ef6565b9050919050565b82805461133a90611b07565b90600052602060002090601f01602090048101928261135c57600085556113a3565b82601f1061137557805160ff19168380011785556113a3565b828001600101855582156113a3579182015b828111156113a2578251825591602001919060010190611387565b5b5090506113b091906113b4565b5090565b5b808211156113cd5760008160009055506001016113b5565b5090565b6000604051905090565b600080fd5b600080fd5b6000819050919050565b6113f8816113e5565b811461140357600080fd5b50565b600081359050611415816113ef565b92915050565b600060208284031215611431576114306113db565b5b600061143f84828501611406565b91505092915050565b611451816113e5565b82525050565b600060208201905061146c6000830184611448565b92915050565b600073ffffffffffffffffffffffffffffffffffffffff82169050919050565b600061149d82611472565b9050919050565b6114ad81611492565b82525050565b60006020820190506114c860008301846114a4565b92915050565b60008115159050919050565b6114e3816114ce565b82525050565b600081519050919050565b600082825260208201905092915050565b60005b83811015611523578082015181840152602081019050611508565b83811115611532576000848401525b50505050565b6000601f19601f8301169050919050565b6000611554826114e9565b61155e81856114f4565b935061156e818560208601611505565b61157781611538565b840191505092915050565b600061158d82611472565b9050919050565b61159d81611582565b82525050565b6000610120820190506115b9600083018c611448565b6115c6602083018b611448565b6115d3604083018a611448565b6115e06060830189611448565b6115ed6080830188611448565b6115fa60a08301876114da565b81810360c083015261160c8186611549565b905081810360e08301526116208185611549565b9050611630610100830184611594565b9a9950505050505050505050565b61164781611492565b811461165257600080fd5b50565b6000813590506116648161163e565b92915050565b60008060408385031215611681576116806113db565b5b600061168f85828601611655565b92505060206116a085828601611655565b9150509250929050565b600080fd5b600080fd5b7f4e487b7100000000000000000000000000000000000000000000000000000000600052604160045260246000fd5b6116ec82611538565b810181811067ffffffffffffffff8211171561170b5761170a6116b4565b5b80604052505050565b600061171e6113d1565b905061172a82826116e3565b919050565b600067ffffffffffffffff82111561174a576117496116b4565b5b61175382611538565b9050602081019050919050565b82818337600083830152505050565b600061178261177d8461172f565b611714565b90508281526020810184848401111561179e5761179d6116af565b5b6117a9848285611760565b509392505050565b600082601f8301126117c6576117c56116aa565b5b81356117d684826020860161176f565b91505092915050565b600080604083850312156117f6576117f56113db565b5b600061180485828601611406565b925050602083013567ffffffffffffffff811115611825576118246113e0565b5b611831858286016117b1565b9150509250929050565b600060208284031215611851576118506113db565b5b600061185f84828501611655565b91505092915050565b6000806040838503121561187f5761187e6113db565b5b600083013567ffffffffffffffff81111561189d5761189c6113e0565b5b6118a9858286016117b1565b925050602083013567ffffffffffffffff8111156118ca576118c96113e0565b5b6118d6858286016117b1565b9150509250929050565b7f4e487b7100000000000000000000000000000000000000000000000000000000600052603260045260246000fd5b7f556e6c69737465642070726f6a65637400000000000000000000000000000000600082015250565b60006119456010836114f4565b91506119508261190f565b602082019050919050565b6000602082019050818103600083015261197481611938565b9050919050565b7f4e6f742063726561746f72000000000000000000000000000000000000000000600082015250565b60006119b1600b836114f4565b91506119bc8261197b565b602082019050919050565b600060208201905081810360008301526119e0816119a4565b9050919050565b7f4e487b7100000000000000000000000000000000000000000000000000000000600052601160045260246000fd5b6000611a21826113e5565b9150611a2c836113e5565b9250827fffffffffffffffffffffffffffffffffffffffffffffffffffffffffffffffff03821115611a6157611a606119e7565b5b828201905092915050565b7f4f776e61626c653a2063616c6c6572206973206e6f7420746865206f776e6572600082015250565b6000611aa26020836114f4565b9150611aad82611a6c565b602082019050919050565b60006020820190508181036000830152611ad181611a95565b9050919050565b7f4e487b7100000000000000000000000000000000000000000000000000000000600052602260045260246000fd5b60006002820490506001821680611b1f57607f821691505b60208210811415611b3357611b32611ad8565b5b50919050565b7f496e76616c696420616d6f756e74000000000000000000000000000000000000600082015250565b6000611b6f600e836114f4565b9150611b7a82611b39565b602082019050919050565b60006020820190508181036000830152611b9e81611b62565b9050919050565b7f43726561746f722063616e6e6f7420766f746500000000000000000000000000600082015250565b6000611bdb6013836114f4565b9150611be682611ba5565b602082019050919050565b60006020820190508181036000830152611c0a81611bce565b9050919050565b6000604082019050611c2660008301856114a4565b611c336020830184611448565b9392505050565b6000604082019050611c4f60008301856114a4565b8181036020830152611c618184611549565b90509392505050565b6000606082019050611c7f6000830186611448565b611c8c6020830185611448565b611c9960408301846114a4565b949350505050565b7f4f776e61626c653a206e6577206f776e657220697320746865207a65726f206160008201527f6464726573730000000000000000000000000000000000000000000000000000602082015250565b6000611cfd6026836114f4565b9150611d0882611ca1565b604082019050919050565b60006020820190508181036000830152611d2c81611cf0565b9050919050565b7f496e73756666696369656e7420616d6f756e7400000000000000000000000000600082015250565b6000611d696013836114f4565b9150611d7482611d33565b602082019050919050565b60006020820190508181036000830152611d9881611d5c565b9050919050565b6000611daa826113e5565b9150611db5836113e5565b925082821015611dc857611dc76119e7565b5b828203905092915050565b60008190508160005260206000209050919050565b60008154611df581611b07565b611dff81866114f4565b94506001821660008114611e1a5760018114611e2c57611e5f565b60ff1983168652602086019350611e5f565b611e3585611dd3565b60005b83811015611e5757815481890152600182019150602081019050611e38565b808801955050505b50505092915050565b6000606082019050611e7d6000830186611448565b8181036020830152611e8f8185611de8565b90508181036040830152611ea38184611de8565b9050949350505050565b6000611eb8826113e5565b91507fffffffffffffffffffffffffffffffffffffffffffffffffffffffffffffffff821415611eeb57611eea6119e7565b5b600182019050919050565b6000611f01826113e5565b9150611f0c836113e5565b9250817fffffffffffffffffffffffffffffffffffffffffffffffffffffffffffffffff0483118215151615611f4557611f446119e7565b5b828202905092915050565b7f4e487b7100000000000000000000000000000000000000000000000000000000600052601260045260246000fd5b6000611f8a826113e5565b9150611f95836113e5565b925082611fa557611fa4611f50565b5b82820490509291505056fea2646970667358221220ff9cb63e5e3bfd8a654005351a52d9ba14279864f39a4a2d84217e1890cfb01764736f6c634300080a0033",
  "immutableReferences": {},
  "source": "// SPDX-License-Identifier: MIT\r\npragma solidity >=0.4.22 <0.9.0;\r\n\r\nimport \"./AnbeShivamNFT.sol\";\r\nimport \"./AnbeShivamInvestorToken.sol\";\r\nimport \"@openzeppelin/contracts/access/Ownable.sol\";\r\n\r\ncontract AnbeShivamMain is Ownable {\r\n    address GODSContract;\r\n    address NFTContract;\r\n\r\n    uint public fundingPool;\r\n    uint public matchingPool;\r\n\r\n    struct Content {\r\n        uint id;\r\n        uint receivedFunds;\r\n        uint matchedFunds;\r\n        uint weight;\r\n        uint votes;\r\n        bool isListed;\r\n        string name;\r\n        string fileURL;\r\n        address payable creator;\r\n    }\r\n\r\n    Content[] public contents;\r\n\r\n    event newContentAdded(uint, string, string);\r\n    event projectFunded(uint, uint, address);\r\n    event setMatchingPool(uint);\r\n\r\n    function sqrt(uint y) internal pure returns (uint z) {\r\n        if (y > 3) {\r\n            z = y;\r\n            uint x = y / 2 + 1;\r\n            while (x < z) {\r\n                z = x;\r\n                x = (y / x + x) / 2;\r\n            }\r\n        } else if (y != 0) {\r\n            z = 1;\r\n        }\r\n    }\r\n\r\n    function square(uint x) internal pure returns (uint z) {\r\n        z = x*x;\r\n    } \r\n\r\n    function syncMatchedFunds() private {\r\n        uint totalWeight;\r\n        for(uint i=0; i < contents.length; ++i) {\r\n            if(contents[i].isListed) {\r\n                totalWeight += square(contents[i].weight) - contents[i].receivedFunds;\r\n            }\r\n        }\r\n        for(uint i=0; i < contents.length; ++i) {\r\n            if(contents[i].isListed) {\r\n                contents[i].matchedFunds = (square(contents[i].weight) - contents[i].receivedFunds)*matchingPool/totalWeight;\r\n            }\r\n        }\r\n    } \r\n\r\n    function returnContentCount() external view returns (uint) {\r\n        return contents.length;\r\n    } \r\n\r\n    function setContractAddresses(\r\n        address _GODSContract, \r\n        address _NFTContract\r\n    ) \r\n        external \r\n        onlyOwner \r\n    {\r\n        GODSContract = _GODSContract;\r\n        NFTContract = _NFTContract;\r\n    }\r\n\r\n    function increaseMatchingPool() external payable onlyOwner {\r\n        require(msg.value > 0);\r\n        matchingPool += msg.value;\r\n        emit setMatchingPool(msg.value);\r\n        syncMatchedFunds();\r\n    }\r\n\r\n    function addContent(string memory _name, string memory _fileURL) external payable {\r\n        require(msg.value >= 2 ether, \"Insufficient amount\");\r\n        contents.push(\r\n            Content(\r\n                contents.length, \r\n                0, 0, 0, 0, \r\n                true, \r\n                _name, \r\n                _fileURL, \r\n                payable(msg.sender)\r\n            )\r\n        );\r\n        emit newContentAdded(\r\n            contents.length - 1,\r\n            contents[contents.length - 1].name,\r\n            contents[contents.length - 1].fileURL\r\n        );\r\n    }\r\n\r\n    function investFunds(uint _contentID, string memory _metadata) external payable {\r\n        require(msg.value >= 1 ether, \"Invalid amount\");\r\n        require(msg.sender != contents[_contentID].creator, \"Creator cannot vote\");\r\n        contents[_contentID].receivedFunds += msg.value;\r\n        contents[_contentID].votes += 1;\r\n        contents[_contentID].weight += sqrt(msg.value);\r\n        fundingPool += msg.value;\r\n        AnbeShivamInvestorToken(GODSContract).mint(msg.sender, msg.value);\r\n        AnbeShivamNFT(NFTContract).safeMint(msg.sender, _metadata);\r\n        emit projectFunded(_contentID, msg.value, msg.sender);\r\n        syncMatchedFunds();\r\n    }\r\n\r\n    function withdrawFunds(uint _contentID) external {\r\n        require(contents[_contentID].isListed, \"Unlisted project\");\r\n        require(msg.sender == contents[_contentID].creator, \"Not creator\");\r\n        uint totalFunds = contents[_contentID].receivedFunds + contents[_contentID].matchedFunds + 2 ether;\r\n        contents[_contentID].receivedFunds = 0;\r\n        contents[_contentID].matchedFunds = 0;\r\n        contents[_contentID].isListed = false;\r\n        contents[_contentID].creator.transfer(totalFunds);\r\n    }\r\n}",
  "sourcePath": "D:\\Projects\\AnbeShivam-Celo\\contracts\\AnbeShivamMain.sol",
  "compiler": {
    "name": "solc",
    "version": "0.8.10+commit.fc410830.Emscripten.clang"
  },
  "schemaVersion": "3.4.3",
  "updatedAt": "2021-11-10T13:54:37.927Z",
  "devdoc": {
    "kind": "dev",
    "methods": {
      "owner()": {
        "details": "Returns the address of the current owner."
      },
      "renounceOwnership()": {
        "details": "Leaves the contract without owner. It will not be possible to call `onlyOwner` functions anymore. Can only be called by the current owner. NOTE: Renouncing ownership will leave the contract without an owner, thereby removing any functionality that is only available to the owner."
      },
      "transferOwnership(address)": {
        "details": "Transfers ownership of the contract to a new account (`newOwner`). Can only be called by the current owner."
      }
    },
    "version": 1
  },
  "userdoc": {
    "kind": "user",
    "methods": {},
    "version": 1
  }
}