{
  "contractName": "AnbeShivamMain",
  "abi": [
    {
      "anonymous": false,
      "inputs": [
        {
          "indexed": true,
          "internalType": "address",
          "name": "previousOwner",
          "type": "address"
        },
        {
          "indexed": true,
          "internalType": "address",
          "name": "newOwner",
          "type": "address"
        }
      ],
      "name": "OwnershipTransferred",
      "type": "event"
    },
    {
      "anonymous": false,
      "inputs": [
        {
          "indexed": false,
          "internalType": "uint256",
          "name": "",
          "type": "uint256"
        },
        {
          "indexed": false,
          "internalType": "string",
          "name": "",
          "type": "string"
        },
        {
          "indexed": false,
          "internalType": "string",
          "name": "",
          "type": "string"
        }
      ],
      "name": "newContentAdded",
      "type": "event"
    },
    {
      "anonymous": false,
      "inputs": [
        {
          "indexed": false,
          "internalType": "uint256",
          "name": "",
          "type": "uint256"
        },
        {
          "indexed": false,
          "internalType": "uint256",
          "name": "",
          "type": "uint256"
        },
        {
          "indexed": false,
          "internalType": "address",
          "name": "",
          "type": "address"
        }
      ],
      "name": "projectFunded",
      "type": "event"
    },
    {
      "anonymous": false,
      "inputs": [
        {
          "components": [
            {
              "internalType": "uint256",
              "name": "id",
              "type": "uint256"
            },
            {
              "internalType": "uint256",
              "name": "receivedFunds",
              "type": "uint256"
            },
            {
              "internalType": "uint256",
              "name": "matchedFunds",
              "type": "uint256"
            },
            {
              "internalType": "uint256",
              "name": "votes",
              "type": "uint256"
            },
            {
              "internalType": "string",
              "name": "name",
              "type": "string"
            },
            {
              "internalType": "string",
              "name": "fileURL",
              "type": "string"
            },
            {
              "internalType": "address payable",
              "name": "creator",
              "type": "address"
            }
          ],
          "indexed": false,
          "internalType": "struct AnbeShivamMain.Content",
          "name": "",
          "type": "tuple"
        },
        {
          "indexed": false,
          "internalType": "address",
          "name": "",
          "type": "address"
        }
      ],
      "name": "viewedContent",
      "type": "event"
    },
    {
      "inputs": [
        {
          "internalType": "uint256",
          "name": "",
          "type": "uint256"
        }
      ],
      "name": "contents",
      "outputs": [
        {
          "internalType": "uint256",
          "name": "id",
          "type": "uint256"
        },
        {
          "internalType": "uint256",
          "name": "receivedFunds",
          "type": "uint256"
        },
        {
          "internalType": "uint256",
          "name": "matchedFunds",
          "type": "uint256"
        },
        {
          "internalType": "uint256",
          "name": "votes",
          "type": "uint256"
        },
        {
          "internalType": "string",
          "name": "name",
          "type": "string"
        },
        {
          "internalType": "string",
          "name": "fileURL",
          "type": "string"
        },
        {
          "internalType": "address payable",
          "name": "creator",
          "type": "address"
        }
      ],
      "stateMutability": "view",
      "type": "function"
    },
    {
      "inputs": [],
      "name": "owner",
      "outputs": [
        {
          "internalType": "address",
          "name": "",
          "type": "address"
        }
      ],
      "stateMutability": "view",
      "type": "function"
    },
    {
      "inputs": [],
      "name": "renounceOwnership",
      "outputs": [],
      "stateMutability": "nonpayable",
      "type": "function"
    },
    {
      "inputs": [],
      "name": "totalVotes",
      "outputs": [
        {
          "internalType": "uint256",
          "name": "",
          "type": "uint256"
        }
      ],
      "stateMutability": "view",
      "type": "function"
    },
    {
      "inputs": [
        {
          "internalType": "address",
          "name": "newOwner",
          "type": "address"
        }
      ],
      "name": "transferOwnership",
      "outputs": [],
      "stateMutability": "nonpayable",
      "type": "function"
    },
    {
      "inputs": [
        {
          "internalType": "address",
          "name": "_GODSContract",
          "type": "address"
        },
        {
          "internalType": "address",
          "name": "_NFTContract",
          "type": "address"
        }
      ],
      "name": "setContractAddresses",
      "outputs": [],
      "stateMutability": "nonpayable",
      "type": "function"
    },
    {
      "inputs": [],
      "name": "returnContentCount",
      "outputs": [
        {
          "internalType": "uint256",
          "name": "",
          "type": "uint256"
        }
      ],
      "stateMutability": "view",
      "type": "function"
    },
    {
      "inputs": [
        {
          "internalType": "string",
          "name": "_name",
          "type": "string"
        },
        {
          "internalType": "string",
          "name": "_fileURL",
          "type": "string"
        }
      ],
      "name": "addContent",
      "outputs": [],
      "stateMutability": "payable",
      "type": "function"
    },
    {
      "inputs": [
        {
          "internalType": "uint256",
          "name": "_contentID",
          "type": "uint256"
        },
        {
          "internalType": "string",
          "name": "_metadata",
          "type": "string"
        }
      ],
      "name": "investFunds",
      "outputs": [],
      "stateMutability": "payable",
      "type": "function"
    },
    {
      "inputs": [
        {
          "internalType": "uint256",
          "name": "_contentID",
          "type": "uint256"
        }
      ],
      "name": "withdrawFunds",
      "outputs": [],
      "stateMutability": "nonpayable",
      "type": "function"
    }
  ],
  "bytecode": "0x608060405234801561001057600080fd5b5061002d61002261003260201b60201c565b61003a60201b60201c565b6100fe565b600033905090565b60008060009054906101000a900473ffffffffffffffffffffffffffffffffffffffff169050816000806101000a81548173ffffffffffffffffffffffffffffffffffffffff021916908373ffffffffffffffffffffffffffffffffffffffff1602179055508173ffffffffffffffffffffffffffffffffffffffff168173ffffffffffffffffffffffffffffffffffffffff167f8be0079c531659141344cd1fd0a4f28419497f9722a3daafe3b4186f6b6457e060405160405180910390a35050565b6119618061010d6000396000f3fe6080604052600436106100915760003560e01c8063b5ecf91211610059578063b5ecf91214610157578063cd931e401461019a578063e6a122af146101c3578063f2fde38b146101df578063f761d0081461020857610091565b80630d15fd7714610096578063155dd5ee146100c1578063715018a6146100ea57806380230f60146101015780638da5cb5b1461012c575b600080fd5b3480156100a257600080fd5b506100ab610224565b6040516100b89190610f0d565b60405180910390f35b3480156100cd57600080fd5b506100e860048036038101906100e39190610f68565b61022a565b005b3480156100f657600080fd5b506100ff610430565b005b34801561010d57600080fd5b506101166104b8565b6040516101239190610f0d565b60405180910390f35b34801561013857600080fd5b506101416104c5565b60405161014e9190610fd6565b60405180910390f35b34801561016357600080fd5b5061017e60048036038101906101799190610f68565b6104ee565b60405161019197969594939291906110ab565b60405180910390f35b3480156101a657600080fd5b506101c160048036038101906101bc9190611154565b610670565b005b6101dd60048036038101906101d891906112c9565b610772565b005b3480156101eb57600080fd5b5061020660048036038101906102019190611325565b610a61565b005b610222600480360381019061021d9190611352565b610b59565b005b60035481565b6004818154811061023e5761023d6113ca565b5b906000526020600020906007020160060160009054906101000a900473ffffffffffffffffffffffffffffffffffffffff1673ffffffffffffffffffffffffffffffffffffffff163373ffffffffffffffffffffffffffffffffffffffff16146102dd576040517f08c379a00000000000000000000000000000000000000000000000000000000081526004016102d490611445565b60405180910390fd5b6000671bc16d674ec80000600483815481106102fc576102fb6113ca565b5b90600052602060002090600702016002015460048481548110610322576103216113ca565b5b90600052602060002090600702016001015461033e9190611494565b6103489190611494565b90506000600483815481106103605761035f6113ca565b5b90600052602060002090600702016001018190555060006004838154811061038b5761038a6113ca565b5b906000526020600020906007020160020181905550600482815481106103b4576103b36113ca565b5b906000526020600020906007020160060160009054906101000a900473ffffffffffffffffffffffffffffffffffffffff1673ffffffffffffffffffffffffffffffffffffffff166108fc829081150290604051600060405180830381858888f1935050505015801561042b573d6000803e3d6000fd5b505050565b610438610d85565b73ffffffffffffffffffffffffffffffffffffffff166104566104c5565b73ffffffffffffffffffffffffffffffffffffffff16146104ac576040517f08c379a00000000000000000000000000000000000000000000000000000000081526004016104a390611536565b60405180910390fd5b6104b66000610d8d565b565b6000600480549050905090565b60008060009054906101000a900473ffffffffffffffffffffffffffffffffffffffff16905090565b600481815481106104fe57600080fd5b906000526020600020906007020160009150905080600001549080600101549080600201549080600301549080600401805461053990611585565b80601f016020809104026020016040519081016040528092919081815260200182805461056590611585565b80156105b25780601f10610587576101008083540402835291602001916105b2565b820191906000526020600020905b81548152906001019060200180831161059557829003601f168201915b5050505050908060050180546105c790611585565b80601f01602080910402602001604051908101604052809291908181526020018280546105f390611585565b80156106405780601f1061061557610100808354040283529160200191610640565b820191906000526020600020905b81548152906001019060200180831161062357829003601f168201915b5050505050908060060160009054906101000a900473ffffffffffffffffffffffffffffffffffffffff16905087565b610678610d85565b73ffffffffffffffffffffffffffffffffffffffff166106966104c5565b73ffffffffffffffffffffffffffffffffffffffff16146106ec576040517f08c379a00000000000000000000000000000000000000000000000000000000081526004016106e390611536565b60405180910390fd5b81600160006101000a81548173ffffffffffffffffffffffffffffffffffffffff021916908373ffffffffffffffffffffffffffffffffffffffff16021790555080600260006101000a81548173ffffffffffffffffffffffffffffffffffffffff021916908373ffffffffffffffffffffffffffffffffffffffff1602179055505050565b670de0b6b3a76400003410156107bd576040517f08c379a00000000000000000000000000000000000000000000000000000000081526004016107b490611603565b60405180910390fd5b600482815481106107d1576107d06113ca565b5b906000526020600020906007020160060160009054906101000a900473ffffffffffffffffffffffffffffffffffffffff1673ffffffffffffffffffffffffffffffffffffffff163373ffffffffffffffffffffffffffffffffffffffff161415610871576040517f08c379a00000000000000000000000000000000000000000000000000000000081526004016108689061166f565b60405180910390fd5b3460048381548110610886576108856113ca565b5b906000526020600020906007020160010160008282546108a69190611494565b925050819055506001600483815481106108c3576108c26113ca565b5b906000526020600020906007020160030160008282546108e39190611494565b925050819055506001600360008282546108fd9190611494565b92505081905550600160009054906101000a900473ffffffffffffffffffffffffffffffffffffffff1673ffffffffffffffffffffffffffffffffffffffff166340c10f1933346040518363ffffffff1660e01b815260040161096192919061168f565b600060405180830381600087803b15801561097b57600080fd5b505af115801561098f573d6000803e3d6000fd5b50505050600260009054906101000a900473ffffffffffffffffffffffffffffffffffffffff1673ffffffffffffffffffffffffffffffffffffffff1663d204c45e33836040518363ffffffff1660e01b81526004016109f09291906116b8565b600060405180830381600087803b158015610a0a57600080fd5b505af1158015610a1e573d6000803e3d6000fd5b505050507f31f78011fdaa6f4db6e053d1e5b5340b2d48b1c14cedc616a5bde37c16415cf2823433604051610a55939291906116e8565b60405180910390a15050565b610a69610d85565b73ffffffffffffffffffffffffffffffffffffffff16610a876104c5565b73ffffffffffffffffffffffffffffffffffffffff1614610add576040517f08c379a0000000000000000000000000000000000000000000000000000000008152600401610ad490611536565b60405180910390fd5b600073ffffffffffffffffffffffffffffffffffffffff168173ffffffffffffffffffffffffffffffffffffffff161415610b4d576040517f08c379a0000000000000000000000000000000000000000000000000000000008152600401610b4490611791565b60405180910390fd5b610b5681610d8d565b50565b671bc16d674ec80000341015610ba4576040517f08c379a0000000000000000000000000000000000000000000000000000000008152600401610b9b906117fd565b60405180910390fd5b60046040518060e0016040528060048054905081526020016000815260200160008152602001600081526020018481526020018381526020013373ffffffffffffffffffffffffffffffffffffffff168152509080600181540180825580915050600190039060005260206000209060070201600090919091909150600082015181600001556020820151816001015560408201518160020155606082015181600301556080820151816004019080519060200190610c64929190610e51565b5060a0820151816005019080519060200190610c81929190610e51565b5060c08201518160060160006101000a81548173ffffffffffffffffffffffffffffffffffffffff021916908373ffffffffffffffffffffffffffffffffffffffff16021790555050507f9d052371d5508337cb778bebe3c70018c8e5eeb5c8c0899f00cffbda54f743e06001600480549050610cfe919061181d565b60046001600480549050610d12919061181d565b81548110610d2357610d226113ca565b5b906000526020600020906007020160040160046001600480549050610d48919061181d565b81548110610d5957610d586113ca565b5b9060005260206000209060070201600501604051610d79939291906118e6565b60405180910390a15050565b600033905090565b60008060009054906101000a900473ffffffffffffffffffffffffffffffffffffffff169050816000806101000a81548173ffffffffffffffffffffffffffffffffffffffff021916908373ffffffffffffffffffffffffffffffffffffffff1602179055508173ffffffffffffffffffffffffffffffffffffffff168173ffffffffffffffffffffffffffffffffffffffff167f8be0079c531659141344cd1fd0a4f28419497f9722a3daafe3b4186f6b6457e060405160405180910390a35050565b828054610e5d90611585565b90600052602060002090601f016020900481019282610e7f5760008555610ec6565b82601f10610e9857805160ff1916838001178555610ec6565b82800160010185558215610ec6579182015b82811115610ec5578251825591602001919060010190610eaa565b5b509050610ed39190610ed7565b5090565b5b80821115610ef0576000816000905550600101610ed8565b5090565b6000819050919050565b610f0781610ef4565b82525050565b6000602082019050610f226000830184610efe565b92915050565b6000604051905090565b600080fd5b600080fd5b610f4581610ef4565b8114610f5057600080fd5b50565b600081359050610f6281610f3c565b92915050565b600060208284031215610f7e57610f7d610f32565b5b6000610f8c84828501610f53565b91505092915050565b600073ffffffffffffffffffffffffffffffffffffffff82169050919050565b6000610fc082610f95565b9050919050565b610fd081610fb5565b82525050565b6000602082019050610feb6000830184610fc7565b92915050565b600081519050919050565b600082825260208201905092915050565b60005b8381101561102b578082015181840152602081019050611010565b8381111561103a576000848401525b50505050565b6000601f19601f8301169050919050565b600061105c82610ff1565b6110668185610ffc565b935061107681856020860161100d565b61107f81611040565b840191505092915050565b600061109582610f95565b9050919050565b6110a58161108a565b82525050565b600060e0820190506110c0600083018a610efe565b6110cd6020830189610efe565b6110da6040830188610efe565b6110e76060830187610efe565b81810360808301526110f98186611051565b905081810360a083015261110d8185611051565b905061111c60c083018461109c565b98975050505050505050565b61113181610fb5565b811461113c57600080fd5b50565b60008135905061114e81611128565b92915050565b6000806040838503121561116b5761116a610f32565b5b60006111798582860161113f565b925050602061118a8582860161113f565b9150509250929050565b600080fd5b600080fd5b7f4e487b7100000000000000000000000000000000000000000000000000000000600052604160045260246000fd5b6111d682611040565b810181811067ffffffffffffffff821117156111f5576111f461119e565b5b80604052505050565b6000611208610f28565b905061121482826111cd565b919050565b600067ffffffffffffffff8211156112345761123361119e565b5b61123d82611040565b9050602081019050919050565b82818337600083830152505050565b600061126c61126784611219565b6111fe565b90508281526020810184848401111561128857611287611199565b5b61129384828561124a565b509392505050565b600082601f8301126112b0576112af611194565b5b81356112c0848260208601611259565b91505092915050565b600080604083850312156112e0576112df610f32565b5b60006112ee85828601610f53565b925050602083013567ffffffffffffffff81111561130f5761130e610f37565b5b61131b8582860161129b565b9150509250929050565b60006020828403121561133b5761133a610f32565b5b60006113498482850161113f565b91505092915050565b6000806040838503121561136957611368610f32565b5b600083013567ffffffffffffffff81111561138757611386610f37565b5b6113938582860161129b565b925050602083013567ffffffffffffffff8111156113b4576113b3610f37565b5b6113c08582860161129b565b9150509250929050565b7f4e487b7100000000000000000000000000000000000000000000000000000000600052603260045260246000fd5b7f4e6f742063726561746f72000000000000000000000000000000000000000000600082015250565b600061142f600b83610ffc565b915061143a826113f9565b602082019050919050565b6000602082019050818103600083015261145e81611422565b9050919050565b7f4e487b7100000000000000000000000000000000000000000000000000000000600052601160045260246000fd5b600061149f82610ef4565b91506114aa83610ef4565b9250827fffffffffffffffffffffffffffffffffffffffffffffffffffffffffffffffff038211156114df576114de611465565b5b828201905092915050565b7f4f776e61626c653a2063616c6c6572206973206e6f7420746865206f776e6572600082015250565b6000611520602083610ffc565b915061152b826114ea565b602082019050919050565b6000602082019050818103600083015261154f81611513565b9050919050565b7f4e487b7100000000000000000000000000000000000000000000000000000000600052602260045260246000fd5b6000600282049050600182168061159d57607f821691505b602082108114156115b1576115b0611556565b5b50919050565b7f496e76616c696420616d6f756e74000000000000000000000000000000000000600082015250565b60006115ed600e83610ffc565b91506115f8826115b7565b602082019050919050565b6000602082019050818103600083015261161c816115e0565b9050919050565b7f43726561746f722063616e6e6f7420766f746500000000000000000000000000600082015250565b6000611659601383610ffc565b915061166482611623565b602082019050919050565b600060208201905081810360008301526116888161164c565b9050919050565b60006040820190506116a46000830185610fc7565b6116b16020830184610efe565b9392505050565b60006040820190506116cd6000830185610fc7565b81810360208301526116df8184611051565b90509392505050565b60006060820190506116fd6000830186610efe565b61170a6020830185610efe565b6117176040830184610fc7565b949350505050565b7f4f776e61626c653a206e6577206f776e657220697320746865207a65726f206160008201527f6464726573730000000000000000000000000000000000000000000000000000602082015250565b600061177b602683610ffc565b91506117868261171f565b604082019050919050565b600060208201905081810360008301526117aa8161176e565b9050919050565b7f496e73756666696369656e7420616d6f756e7400000000000000000000000000600082015250565b60006117e7601383610ffc565b91506117f2826117b1565b602082019050919050565b60006020820190508181036000830152611816816117da565b9050919050565b600061182882610ef4565b915061183383610ef4565b92508282101561184657611845611465565b5b828203905092915050565b60008190508160005260206000209050919050565b6000815461187381611585565b61187d8186610ffc565b9450600182166000811461189857600181146118aa576118dd565b60ff19831686526020860193506118dd565b6118b385611851565b60005b838110156118d5578154818901526001820191506020810190506118b6565b808801955050505b50505092915050565b60006060820190506118fb6000830186610efe565b818103602083015261190d8185611866565b905081810360408301526119218184611866565b905094935050505056fea2646970667358221220810471bb8e5c0b065de4ce14cf5f8d34b1920bf69c2059c64dec6ea949dfb34c64736f6c63430008090033",
  "immutableReferences": {},
  "source": "// SPDX-License-Identifier: MIT\r\npragma solidity >=0.4.22 <0.9.0;\r\n\r\nimport \"./AnbeShivamNFT.sol\";\r\nimport \"./AnbeShivamInvestorToken.sol\";\r\nimport \"@openzeppelin/contracts/access/Ownable.sol\";\r\n\r\ncontract AnbeShivamMain is Ownable {\r\n    address GODSContract;\r\n    address NFTContract;\r\n\r\n    uint public totalVotes;\r\n\r\n    struct Content {\r\n        uint id;\r\n        uint receivedFunds;\r\n        uint matchedFunds;\r\n        uint votes;\r\n        string name;\r\n        string fileURL;\r\n        address payable creator;\r\n    }\r\n\r\n    Content[] public contents;\r\n\r\n    event newContentAdded(uint, string, string);\r\n    event viewedContent(Content, address);\r\n    event projectFunded(uint, uint, address);\r\n\r\n    function setContractAddresses(\r\n        address _GODSContract, \r\n        address _NFTContract\r\n    ) \r\n        external \r\n        onlyOwner \r\n    {\r\n        GODSContract = _GODSContract;\r\n        NFTContract = _NFTContract;\r\n    }\r\n\r\n    function returnContentCount() external view returns (uint) {\r\n        return contents.length;\r\n    } \r\n\r\n    function addContent(string memory _name, string memory _fileURL) external payable {\r\n        require(msg.value >= 2 ether, \"Insufficient amount\");\r\n        contents.push(Content(contents.length, 0, 0, 0, _name, _fileURL, payable(msg.sender)));\r\n        emit newContentAdded(\r\n            contents.length - 1,\r\n            contents[contents.length - 1].name,\r\n            contents[contents.length - 1].fileURL\r\n        );\r\n    }\r\n\r\n    function investFunds(uint _contentID, string memory _metadata) external payable {\r\n        require(msg.value >= 1 ether, \"Invalid amount\");\r\n        require(msg.sender != contents[_contentID].creator, \"Creator cannot vote\");\r\n        contents[_contentID].receivedFunds += msg.value;\r\n        contents[_contentID].votes += 1;\r\n        totalVotes += 1;\r\n        AnbeShivamInvestorToken(GODSContract).mint(msg.sender, msg.value);\r\n        AnbeShivamNFT(NFTContract).safeMint(msg.sender, _metadata);\r\n        emit projectFunded(_contentID, msg.value, msg.sender);\r\n    }\r\n\r\n    function withdrawFunds(uint _contentID) external {\r\n        require(msg.sender == contents[_contentID].creator, \"Not creator\");\r\n        uint totalFunds = contents[_contentID].receivedFunds + contents[_contentID].matchedFunds + 2 ether;\r\n        contents[_contentID].receivedFunds = 0;\r\n        contents[_contentID].matchedFunds = 0;\r\n        contents[_contentID].creator.transfer(totalFunds);\r\n    }\r\n}",
  "sourcePath": "D:\\Projects\\AnbeShivam-Celo\\contracts\\AnbeShivamMain.sol",
  "compiler": {
    "name": "solc",
    "version": "0.8.9+commit.e5eed63a.Emscripten.clang"
  },
  "schemaVersion": "3.4.3",
  "updatedAt": "2021-11-08T08:21:29.243Z",
  "devdoc": {
    "kind": "dev",
    "methods": {
      "owner()": {
        "details": "Returns the address of the current owner."
      },
      "renounceOwnership()": {
        "details": "Leaves the contract without owner. It will not be possible to call `onlyOwner` functions anymore. Can only be called by the current owner. NOTE: Renouncing ownership will leave the contract without an owner, thereby removing any functionality that is only available to the owner."
      },
      "transferOwnership(address)": {
        "details": "Transfers ownership of the contract to a new account (`newOwner`). Can only be called by the current owner."
      }
    },
    "version": 1
  },
  "userdoc": {
    "kind": "user",
    "methods": {},
    "version": 1
  }
}